:100000008FC00000ABC00000A9C00000A7C0000066
:10001000A5C00000A3C00000A1C000009FC0000058
:100020009DC000009BC0000099C0000097C0000068
:1000300095C0000093C0000091C000008FC0000078
:100040008DC00000C9C40000F4C400001FC500003A
:1000500096C4000083C0000081C000007FC0000083
:100060007DC000007BC0000079C0000077C00000A8
:1000700075C0000073C0000071C000006FC00000B8
:100080005FC500008AC50000B5C500002CC5000092
:1000900065C0000063C0000061C000005FC00000D8
:1000A0005DC000005BC00000FFC500002AC6000064
:1000B00055C60000CCC5000051C00000A9C6000014
:1000C000D4C60000FFC6000076C6000047C000008E
:1000D00045C0000043C0000041C000003FC0000018
:1000E0003DC000003BC0000039C0000037C0000028
:1000F00035C0000033C0000031C000002FC0000038
:100100002DC000002BC0000029C0000027C0000047
:1001100025C0000023C0000021C000001FC0000057
:1001200011241FBECFEFD1E4DEBFCDBF12E0A0E0AF
:10013000B2E0E2EBF7E200E00BBF02C007900D92E5
:10014000AC30B107D9F72AE0ACE0B2E001C01D92B3
:10015000AC38B207E1F703D10C94D71351CFF8D7DD
:10016000209110022223C9F0E0918B0A40E0F09127
:1001700010026E2F742F0E9459129B018FEF9FEF78
:100180006E2F742F0E945912F69FC001F79F900D99
:100190001124B901680F791F05C060918B0A70E0C6
:1001A0000E945912862F972F0895D7D7FAD7109209
:1001B0000C0210920D0210920E0210920F02109279
:1001C000120210921102FAC70895D5D710921002A8
:1001D0000895EBDFFADFD6C708950F931F938C01C4
:1001E000B7D7AC01A0918B0A9801B0E00E948F12A2
:1001F0008B019C01040F151F211D311D00930C0262
:1002000010930D0220930E0230930F0200910C0206
:1002100010910D0220910E0230910F0289012227C8
:10022000332700930C0210930D0220930E0230939B
:100230000F0200910C0210910D0220910E023091DC
:100240000F02012B022B032B91F000910C02109155
:100250000D0220910E0230910F026F5F7F4F460F0B
:10026000571F509312024093110277D707C0640FB3
:10027000751F709312026093110276D7809111025C
:10028000909112028436910530F48C599F4F9093CF
:10029000120280931102809111029091120276D77E
:1002A0001F910F910895109210028AD780938B0AA4
:1002B000089580910C0290910D02A0910E02B091D0
:1002C0000F02892B8A2B8B2BC1F080910C0290910D
:1002D0000D02A0910E02B0910F020197A109B10980
:1002E00080930C0290930D02A0930E02B0930F0224
:1002F000892B8A2B8B2B09F437D7809110028F5FC3
:100300008093100290918B0A891748F01092100286
:10031000E0911302F0911402309709F009950895C5
:100320001CD7E0911502F0911602309709F009955B
:1003300008959093140280931302089590931602E7
:1003400080931502089504C06150710981099109D3
:100350006115710581059105B9F7089508950E9409
:10036000351141D04DD79AD16DE673E081E00E94FE
:10037000470B84B195B19F7395B9806C84B983B3F1
:1003800094B3997F94BB866083BB2F9A2E9AA19ACF
:10039000A29A63EC72EA80E090E0D5DF2F982E9865
:1003A000A198A2986BE07BE882E090E0CCDFCBD113
:1003B0007894E7E1F2E084EF91E0A0E0B0E086839A
:1003C0009783A087B18781E082878EEA91E0948746
:1003D0008387CF01B6D719D7D3D101C0CCD1BAD139
:1003E0008111FCCFF8CFCF93DF931F92CDB7DEB74B
:1003F0008FEF80936400809365008091610083306B
:1004000069F08FB78983F89489815F9350E850939E
:10041000610053E0509361005F918FBF0F90DF91B7
:10042000CF910895CF93DF931F92CDB7DEB79FB7DB
:100430009983F8949981823040F4E82FF0E0EC59E8
:10044000FF4F60958081682360839FBF0F90DF918D
:10045000CF910895CF93DF931F92CDB7DEB79FB7AB
:100460009983F8949981823038F4E82FF0E0EC59C0
:10047000FF4F8081682B60839FBF0F90DF91CF91EA
:10048000089504C0615071098109910961157105D0
:1004900081059105B9F708952F923F924F925F928F
:1004A0006F927F928F929F92AF92BF92CF92DF9284
:1004B000EF92FF920F931F93CF93DF9300D000D062
:1004C00000D0CDB7DEB7442309F48FC0942E3B0192
:1004D000282F30E036952795369527953695279520
:1004E0003C832B83220F331F4B815C81420F531FB0
:1004F000405E5F4F5E834D83877001E010E0F8013E
:1005000002C0EE0FFF1F8A95E2F7FC83EB838B801E
:10051000AB016894AA24A6F80F2EF2E4BF2EF02DAA
:100520000F2EFFE0CF2EF02DD12CE12CF12C00E08E
:1005300010E0262D352F40E050E060E070E080E0D4
:1005400090E00E949E120F2EF6E0AF2EF02DB12CFF
:10055000C12C0E94F11229513C4F4F4F5F4F6F4FFA
:100560007F4F8F4F9F4F222E332E442E552EA62E77
:10057000B72E89839A83082D0095ED81FE818281B3
:100580008829828361147104F1F0222D332D442DCA
:10059000552D6A2D7B2D89819A810E94CA1120E0F8
:1005A00030E04AE754E40E9436110E949E116B012C
:1005B0007C0167DFED81FE81828180238283C70118
:1005C000B6015FDF0FC061E070E080E090E059DFCE
:1005D000ED81FE8182818023828361E070E080E092
:1005E00090E04FDF1F5F9112C8CF26960FB6F894A8
:1005F000DEBF0FBECDBFDF91CF911F910F91FF9056
:10060000EF90DF90CF90BF90AF909F908F907F90B2
:100610006F905F904F903F902F900895FC018785D9
:10062000811106C041E064E670E08EE035CF0895A8
:10063000813031F441E064E670E082E32DCF08952B
:10064000823031F442E064E670E082E325CF089521
:10065000803131F443E064E670E082E31DCF089519
:10066000813131F444E064E670E082E315CF08950F
:10067000803231F445E064E670E082E30DCF089506
:10068000813231F446E064E670E082E305CF0895FC
:1006900047E064E670E082E3FFCE089582E090E0F8
:1006A000EAD789E392E1EDD787E1FDD681E0F7C68D
:1006B0000895E4E2F2E09683858381E08783808772
:1006C00084E081877387628744878EE093E0968712
:1006D0008587CF010C947C0B0895CF93DF93EC01B9
:1006E0002F9A6BE171E480E090E0CBDE2F98898552
:1006F0008430C1F488819981E5E3F2E091838083BD
:100700008B858283AF81B8858D919D910D90BC9131
:10071000A02D83839483A583B68347E0BF0180E047
:1007200090E0C7DF80E0DF91CF91089510923D0304
:1007300010923C03ECE3F2E08CE393E01192E817B3
:10074000F907E1F7089564E072E088EC90E0CED01C
:10075000EDCF089590913C0380913D03891749F0B6
:10076000E92FF0E0E45CFD4F80819F5F90933C03B4
:10077000089580E00895682F88EC90E01EC00895E9
:1007800088EC90E021D08823A1F090913D03E92FDF
:10079000F0E0E45CFD4F80839F5F90933D0388EC25
:1007A00090E012D08111F1CF61E070E080E090E044
:1007B000089560E070E0CB010895FC01908195FF01
:1007C000FDCF668380E00895FC019081892F8078B9
:1007D00009F0868108954F925F926F927F928F9277
:1007E0009F92AF92BF92CF92DF92EF92FF920F93C0
:1007F0001F93CF93DF93EC016A017B01280139013C
:10080000689412F876946794579447941694D1F7A5
:10081000888181FD0EC048015901072E73E1B6940D
:10082000A794979487947A95D1F7702DD301C2013C
:1008300015C0D901C801689413F8B695A795979586
:1008400087951694D1F748015901072E74E1B694A3
:10085000A794979487947A95D1F7702D8C159D0560
:10086000AE05BF0578F1C814D904EA04FB0460F1B1
:10087000888181FF10C0A7019601220F331F441FFA
:10088000551FC301B2010E946D12DA01C90101971F
:10089000A109B10913C0C901B801689413F896956C
:1008A0008795779567951694D1F7A70196010E94D1
:1008B0006D12DA01C9010197A109B1099D838C83E9
:1008C00081E003C080E001C080E0DF91CF911F9103
:1008D0000F91FF90EF90DF90CF90BF90AF909F90DF
:1008E0008F907F906F905F904F9008950F931F931C
:1008F000CF93DF93EC018B01803C910521F462E002
:1009000080E090DD06C0883C910519F461E081E04B
:1009100089DD8A818F738A83F801268135818481FC
:100920009A81482F4370440F997F942B9A83998121
:100930008470880F880F9B7F892B89838A818F7CA5
:10094000832B8A839A81977F822F880F880F880F45
:10095000892B8A83408151816281738100E412E492
:100960002FE030E0CE0137DF99819860998399813B
:1009700090619983DF91CF911F910F9108951F92FC
:100980000F920FB60F9211240BB60F922F933F9335
:100990004F935F936F937F938F939F93AF93BF9387
:1009A000EF93FF93E0915C03F0915D03309709F0C2
:1009B0000995FF91EF91BF91AF919F918F917F9199
:1009C0006F915F914F913F912F910F900BBE0F90C0
:1009D0000FBE0F901F9018951F920F920FB60F9297
:1009E00011240BB60F922F933F934F935F936F9306
:1009F0007F938F939F93AF93BF93EF93FF93E09178
:100A00005A03F0915B03309709F00995FF91EF913C
:100A1000BF91AF919F918F917F916F915F914F9116
:100A20003F912F910F900BBE0F900FBE0F901F9014
:100A300018951F920F920FB60F9211240BB60F92BA
:100A40002F933F934F935F936F937F938F939F93D6
:100A5000AF93BF93EF93FF93E0915803F091590345
:100A6000309709F00995FF91EF91BF91AF919F9158
:100A70008F917F916F915F914F913F912F910F9047
:100A80000BBE0F900FBE0F901F9018951F920F92E4
:100A90000FB60F9211240BB60F922F933F934F93E3
:100AA0005F936F937F938F939F93AF93BF93EF93D6
:100AB000FF93E0915603F0915703309709F00995A1
:100AC000FF91EF91BF91AF919F918F917F916F9126
:100AD0005F914F913F912F910F900BBE0F900FBEE2
:100AE0000F901F9018951F920F920FB60F9211241E
:100AF0000BB60F922F933F934F935F936F937F9318
:100B00008F939F93AF93BF93EF93FF93E091540321
:100B1000F0915503309709F00995FF91EF91BF913E
:100B2000AF919F918F917F916F915F914F913F9185
:100B30002F910F900BBE0F900FBE0F901F90189526
:100B40001F920F920FB60F9211240BB60F922F9394
:100B50003F934F935F936F937F938F939F93AF9345
:100B6000BF93EF93FF93E0915203F09153033097BB
:100B700009F00995FF91EF91BF91AF919F918F91EE
:100B80007F916F915F914F913F912F910F900BBE8D
:100B90000F900FBE0F901F9018951F920F920FB6D7
:100BA0000F9211240BB60F922F933F934F935F93A5
:100BB0006F937F938F939F93AF93BF93EF93FF9325
:100BC000E0915003F0915103309709F00995FF919E
:100BD000EF91BF91AF919F918F917F916F915F91B5
:100BE0004F913F912F910F900BBE0F900FBE0F9022
:100BF0001F9018951F920F920FB60F9211240BB6EB
:100C00000F922F933F934F935F936F937F938F93A5
:100C10009F93AF93BF93EF93FF93E0914E03F091B7
:100C20004F03309709F00995FF91EF91BF91AF9174
:100C30009F918F917F916F915F914F913F912F91F4
:100C40000F900BBE0F900FBE0F901F9018951F9224
:100C50000F920FB60F9211240BB60F922F933F9362
:100C60004F935F936F937F938F939F93AF93BF93B4
:100C7000EF93FF93E0914C03F0914D03309709F00F
:100C80000995FF91EF91BF91AF919F918F917F91C6
:100C90006F915F914F913F912F910F900BBE0F90ED
:100CA0000FBE0F901F9018951F920F920FB60F92C4
:100CB00011240BB60F922F933F934F935F936F9333
:100CC0007F938F939F93AF93BF93EF93FF93E091A5
:100CD0004A03F0914B03309709F00995FF91EF918A
:100CE000BF91AF919F918F917F916F915F914F9144
:100CF0003F912F910F900BBE0F900FBE0F901F9042
:100D000018951F920F920FB60F9211240BB60F92E7
:100D10002F933F934F935F936F937F938F939F9303
:100D2000AF93BF93EF93FF93E0914803F091490392
:100D3000309709F00995FF91EF91BF91AF919F9185
:100D40008F917F916F915F914F913F912F910F9074
:100D50000BBE0F900FBE0F901F9018951F920F9211
:100D60000FB60F9211240BB60F922F933F934F9310
:100D70005F936F937F938F939F93AF93BF93EF9303
:100D8000FF93E0914603F0914703309709F00995EE
:100D9000FF91EF91BF91AF919F918F917F916F9153
:100DA0005F914F913F912F910F900BBE0F900FBE0F
:100DB0000F901F9018951F920F920FB60F9211244B
:100DC0000BB60F922F933F934F935F936F937F9345
:100DD0008F939F93AF93BF93EF93FF93E09144035F
:100DE000F0914503309709F00995FF91EF91BF917C
:100DF000AF919F918F917F916F915F914F913F91B3
:100E00002F910F900BBE0F900FBE0F901F90189553
:100E10001F920F920FB60F9211240BB60F922F93C1
:100E20003F934F935F936F937F938F939F93AF9372
:100E3000BF93EF93FF93E0914203F0914303309708
:100E400009F00995FF91EF91BF91AF919F918F911B
:100E50007F916F915F914F913F912F910F900BBEBA
:100E60000F900FBE0F901F9018951F920F920FB604
:100E70000F9211240BB60F922F933F934F935F93D2
:100E80006F937F938F939F93AF93BF93EF93FF9352
:100E9000E0914003F0914103309709F00995FF91EB
:100EA000EF91BF91AF919F918F917F916F915F91E2
:100EB0004F913F912F910F900BBE0F900FBE0F904F
:100EC0001F9018951F920F920FB60F9211240BB618
:100ED0000F922F933F934F935F936F937F938F93D3
:100EE0009F93AF93BF93EF93FF93E0913E03F091F5
:100EF0003F03309709F00995FF91EF91BF91AF91B2
:100F00009F918F917F916F915F914F913F912F9121
:100F10000F900BBE0F900FBE0F901F9018951F9350
:100F2000CF93DF931F92CDB7DEB72FB72983F89405
:100F30001981009709F457C08837910539F461E0A9
:100F400080E070DA60E180E06DDA4DC0803C9105B0
:100F500021F462E080E066DA46C08C34910521F429
:100F600064E080E05FDA3FC08038910521F468E0FA
:100F700080E058DA38C08434910521F460E280E0E2
:100F800051DA31C0803B910521F460E480E04ADA17
:100F90002AC0883B910521F460E880E043DA23C051
:100FA000883C910521F461E081E03CDA1CC0803985
:100FB000910521F468E081E035DA15C0803A9105A9
:100FC00021F460E181E02EDA0EC0803221E0920748
:100FD00021F460E281E026DA06C08334914019F4FE
:100FE00060E481E01FDA1FBF0F90DF91CF911F9166
:100FF00008951F93CF93DF931F92CDB7DEB72FB71E
:101000002983F8941981009709F457C0883791050E
:1010100039F461E080E01EDA60E180E01BDA4DC067
:10102000803C910521F462E080E014DA46C08C3403
:10103000910521F464E080E00DDA3FC0803891052D
:1010400021F468E080E006DA38C08434910521F4A8
:1010500060E280E0FFD931C0803B910521F460E47B
:1010600080E0F8D92AC0883B910521F460E880E04F
:10107000F1D923C0883C910521F461E081E0EAD9EF
:101080001CC08039910521F468E081E0E3D915C0E6
:10109000803A910521F460E181E0DCD90EC0803214
:1010A00021E0920721F460E281E0D4D906C08334C4
:1010B000914019F460E481E0CDD91FBF0F90DF911A
:1010C000CF911F9108958038910529F470935D03A5
:1010D00060935C0308958039910529F4709355035A
:1010E000609354030895803A910529F470934D0359
:1010F00060934C0308958032914021F4709345032E
:101100006093440308958038910529F470935B033C
:1011100060935A0308958039910529F4709353031D
:10112000609352030895803A910529F470934B031C
:1011300060934A0308958032914021F470934303F1
:101140006093420308950895B4C80895E9C80895C6
:1011500080918400909185000895EFE6F0E0808111
:101160008D7F8083B19A0895B19AEFE6F0E0808197
:10117000826080830895EFE6F0E080818160808363
:10118000B09A089580E890E034CF0895E9E8F0E05F
:101190002081922B9083E8E8F0E09081892B808376
:1011A0000895CF93DF931F92CDB7DEB78FB78983B2
:1011B000F89489810F90DF91CF9108958FBF0895A2
:1011C000CF93DF9380E890E0AADE64EA78E080E8DD
:1011D00090E079DFCFE6D0E088818160888366EA9D
:1011E00078E080E890E08FDF88818D7F8883E1E878
:1011F000F0E080818160808381E0DF91CF9108956C
:1012000076D0A1DF36D121C20895A4D149D2A4C09D
:1012100008950F931F93CF93DF93EC0180915E03AA
:1012200090915F03009709F445C04E815F81688506
:101230007985FC0102811381248135814017510792
:101240006207730760F0DC0117C0028113812481FB
:101250003581401751076207730768F403C0FC012A
:10126000A0E0B0E0041B150B260B370B02831383A1
:10127000248335830AC0DF01401B510B620B730BC3
:10128000ED91FC911197309701F74A835B836C8352
:101290007D83109741F08D919C911197998388835C
:1012A000CD93DC9315C099838883D0935F03C0935B
:1012B0005E030EC0198218828E819F81A885B98530
:1012C0008A839B83AC83BD83D0935F03C0935E030B
:1012D000DF91CF911F910F9108958091620A8F5FE6
:1012E0008093620A80E197E20C94ED0008951092D9
:1012F000620A8DE699E022D80E94530180E197E2CC
:101300000E94ED0010925F0310925E030895E09139
:101310005E03F0915F03309771F0E817F90721F44D
:101320000CC08E179F0759F00190F081E02D309787
:10133000C1F780E0089580E0089581E0089581E09C
:101340000895CF93DF93EC01E2DF811102C0CE015B
:1013500060DFDF91CF910895CF92DF92EF92FF92FD
:101360000F931F93CF93DF931F92CDB7DEB780917A
:10137000620A882309F453C08FB78983F89489815E
:10138000C090620A1092620A8FBFD12CE12CF12C1E
:10139000CC0CDD1CEE1CFF1CD701C601880F991F69
:1013A000AA1FBB1F880F991FAA1FBB1FC80ED91EDB
:1013B000EA1EFB1E1BC0C81AD90AEA0AFB0AD8019A
:1013C0008D919C91119790935F0380935E031A9681
:1013D0008C91813011F4C8011CDFD8011B96ED916E
:1013E000FC911C97309711F0C801099500915E039C
:1013F00010915F030115110591F0F801828193812D
:10140000A481B581C816D906EA06FB06A0F68C1998
:101410009D09AE09BF0982839383A483B5830F908E
:10142000DF91CF911F910F91FF90EF90DF90CF90C0
:101430000895A2E4B1E023E0E1E4F1E02C9390818F
:101440009F719830D9F7A2E4B1E0E1E4F1E08C9328
:1014500090819F718913FBCF089588E0EADF8FEFB9
:1014600080934F0180916003882311F086E1E1CFE2
:10147000089560E481E00E941202E9E3F1E08081D6
:10148000816080831092600381E08093E10388E0B3
:10149000D0DFECE4F1E08081806880830895809360
:1014A0006003DBCF08958F71E8E4F1E09081907ED6
:1014B000892B80830895CF93DF9300D0CDB7DEB71B
:1014C0009A838983809362018A81809363010F905C
:1014D0000F90DF91CF910895CF93DF9300D0CDB7D8
:1014E000DEB79A838983809360018A81809361014A
:1014F00099818A81890F80936D010F900F90DF9100
:10150000CF910895CF93DF93EC0189E192DF8FEFC4
:1015100080934F0188818E5F80938001888188232A
:1015200081F020E0822F90E0FC01EF57FE4FDE01BA
:10153000A80FB91F11968C9180832F5F888128177F
:1015400088F383E08093E10382E080934201DF919E
:10155000CF9108951F93CF93DF9300D000D01F92B7
:10156000CDB7DEB78091E103823009F465C0809188
:101570004F0183FF3EC0A0917B016A2F70E0AB0159
:101580004F5F5F4F80E090E020E0FC01E058FE4FAD
:101590003081FC01EF59FC4F30832F5F822F90E0A8
:1015A0008417950794F381E693E09A838983A25088
:1015B000AB83FB01EF59FC4F80818C838091470105
:1015C0008A558D83CE01019628D2E1E4F1E0808135
:1015D0008F718631E1F7EFE4F1E0808188608083EC
:1015E000ECE4F1E080818F77808380818068808364
:1015F00023C080914F0186FF1FC0809141018F71F0
:101600008931A9F41091420112951695177049F08D
:10161000133021F0153021F013E003C011E001C0B8
:1016200012E01BDF81E08093E103812F64D5EFE4BA
:10163000F1E08081806480830F900F900F900F9075
:101640000F90DF91CF911F910895E3E6FAE01482A5
:1016500015821182108217A216A2E9E6FAE089E843
:101660009AE011921192E817F907D9F76BD4B8D123
:1016700009D13DC008959093640A8093630A2CCFEA
:1016800008959093660A8093650A15CF0895E82F10
:10169000F0E0EE0FFF1FE759F54F71836083089567
:1016A000E6D14CD54DC00895E091E203F091E303FB
:1016B0003097D9F0228133818217930789F405C0CE
:1016C000228133812817390759F4DC01AD57BF4F08
:1016D0002C91278713962C91208B22E0248305C020
:1016E0000190F081E02D309759F70EC108951092C6
:1016F000E3031092E2030895FC011482178613821B
:101700001282A3E6BAE096968D919C9197970196E6
:1017100097969C938E9396978091E2039091E30322
:10172000009739F411821082F093E303E093E2030F
:10173000089591838083F093E303E093E203089597
:101740000F931F93CF93DF93E091E203F091E303B4
:10175000309709F492C0EF018C81882321F0823008
:1017600009F465C084C099D08C01009721F482E00F
:101770008C838F8782C09B838A8381E08C83F8016E
:10178000E957FF4F84E59BE09183808331978985FA
:1017900082FB882780F980839985D8011B968C91DC
:1017A0001B9790FB80F91B968C931B97998593FB55
:1017B000992790F990FB82F91B968C931B97E3E68F
:1017C000FAE084818F5F84831C968C931C978081C0
:1017D00091811E969C938E931D978D819E8150962C
:1017E0009C938E931F978885982F9F7051968C910C
:1017F0005197807F892B51968C9351979F81929519
:10180000907F8F70892B51968C93F801EF57FF4F83
:101810004C8550E06A857B858081918193D7F80162
:1018200091818C85890F8183C801AFD326C0EC17C5
:10183000FD0741F4808191819093E3038093E2035B
:101840000AC0FC01808191818C179D07D1F78881A6
:10185000998191838083E3E6FAE086A197A10197BD
:1018600097A386A3ED85FE85CE01099506C0099054
:10187000D881C02D209709F06FCFDF91CF911F91B4
:101880000F910895E4EEF3E08EE399E01082E757BC
:10189000FF4FE817F907D1F708958091E4038823F3
:1018A00049F0EDE6F4E081E090E0AC012081211107
:1018B00022C002C040E050E069E8649F9001659F4B
:1018C000300D1124C9018C519C4FFC0111926A9575
:1018D000E9F740E1FC014183EF57FF4F2A503C4FAD
:1018E00031832083E3E6FAE026A137A12F5F3F4F43
:1018F00037A326A308950196E757FF4F8A30910535
:10190000A1F680E090E00895FC011082E3E6FAE0A1
:1019100086A197A1019797A386A30895009741F008
:10192000FC01E757FF4F89E0EE33F80718F012C0CB
:10193000E4EEF3E08081882321F00FC080818111E3
:101940000FC0E757FF4F89E0EE33F807B8F380E0A8
:1019500090E0089580E090E008958E2F9F2F0895E5
:101960008E2F9F2F0895FC01DC01AD57BF4F1C92B5
:10197000A3E6BAE014969C9114979F5F14969C93EB
:10198000149794878D919C91968785870895DC01A3
:1019900019962C911997222349F01796ED91FC91F5
:1019A00018972081211104C081C3089580E0089513
:1019B00080E00895BC01E0E5F9E02AE43AE040E087
:1019C00051E09081992319F091509083452F3596DD
:1019D000E217F307B1F7442311F0CB01B2CC08951D
:1019E000E0E5F9E08AE49AE010823596E817F90715
:1019F000D9F7EEE3F9E084E690E0A0E0B0E086837A
:101A00009783A087B18712868AED9CE094878387AD
:101A100067EC7CE080E03BCE0895CF93DF93DC0160
:101A2000ED91FC91119721812838F1F420812F7DCF
:101A30002134D1F412962C912031B0F0EC012DDF3D
:101A4000009791F020E2FC0120832A8121832B81E1
:101A5000ED57FF4F20832C81319620834A8150E03F
:101A60006881798102966ED6DF91CF9108952F9289
:101A70003F924F925F926F927F928F929F92AF921E
:101A8000BF92CF92DF92EF92FF920F931F93CF936B
:101A9000DF93CDB7DEB72C970FB6F894DEBF0FBE3D
:101AA000CDBF00E010E00F2EF4E2BF2EF02D0F2E80
:101AB000F3E6EF2EFAE0FF2EF02D6894AA24A4F8A6
:101AC0006894772473F86894662462F8212C312C8A
:101AD0000F2EF2E25F2EF02D0F2EF5E14F2EF02D9E
:101AE000CC24C394D12C99C1D8018C91823209F4B1
:101AF000C8C0843209F48FC1803209F08EC1BC9213
:101B00001B968C911B97982F9A7009F086C1159699
:101B10002D913C9116972F3F3F4F79F4F80187851F
:101B20009089D7012D913C912817390719F001961A
:101B300009F073C1F801508270C1D8011F962D9130
:101B40003C9150972F3F3F4F09F06EC180FF6CC111
:101B500064C19C014481442309F455C040815181F2
:101B60004617570709F050C0F8019485F901EE0FA8
:101B7000FF1FEE0FFF1FE20FF31FE45BF64F8281A2
:101B8000891B883038F5F901EE0FFF1FEE0FFF1F9C
:101B9000E20FF31FE45BF64F9381492F50E0082ECC
:101BA00002C0559547950A94E2F740FD36C1F90108
:101BB000EE0FFF1FEE0FFF1F2E0F3F1FF901E45B1B
:101BC000F64F960102C0220F331F8A95E2F7922B3F
:101BD00093833AC1F901EE0FFF1FEE0FFF1F2E0F87
:101BE0003F1FF901E45BF64F9283238130E081953A
:101BF000A90102C0440F551F8A95E2F7CA0181600E
:101C00008383448221C1DF01019635968233910599
:101C100009F09FCF109709F400C111967C936E9341
:101C2000F801848512968C931297F1E01396FC9339
:101C3000139714964C928EE399E083DB05C1D8018B
:101C40001F968D919C915097F70120813181281723
:101C50003907A1F01B962C9122FD0DC0C801E3D1DC
:101C6000D8011F968D919C915097F7012081318169
:101C70002817390719F0019609F0CFC0D8015C92F6
:101C8000CCC010924B09F801818982958F70E82FA2
:101C9000F0E0EE0FFF1FE759F54F0190F081E02DC6
:101CA000309709F461C0D8011D962D913C911E9783
:101CB0003A8329831F964D915C9150975C834B83A7
:101CC00051969C9151979F709D838E83AF57BF4FC4
:101CD0008D919C9199878887B8016E5F7F4F861B95
:101CE000970BD80111969C911197981B9A87AD5725
:101CF000BF4F8C918B8711968C918C87D8011B9646
:101D00009C91692F637092FD02C080E001C080E267
:101D1000862B93FD02C090E001C090E4892B4F3FD9
:101D20005F4F11F090E001C0962D892BD8011996D4
:101D30004D915C911A972417350711F090E001C07E
:101D4000972D892B8F83D80115962D913C9116974D
:101D50002F3F3F4F11F090E001C09A2D892B8F83C8
:101D6000CE010196099501C080E0F801938590FFAE
:101D700080E0D80117962D913C9118972F3F3F4F47
:101D800069F4F70140815181D8011F962D913C9152
:101D900050974217530711F493FF81E0F801258112
:101DA00036812F3F3F4FA1F1D7012D913C912F3F1D
:101DB0003F4F71F1882361F170DD4C01009741F1D3
:101DC000D2DDF40181818D5F8183E957FF4F11825C
:101DD0001082D8011B968C911B9786958170F40117
:101DE000938580FB91F993871D968D919C911E9709
:101DF000908B8787EF57FF4F0190F081E02D108285
:101E000080914B0982831C968C918183C401BDD043
:101E1000D801BC9202C0C80177DDC8017FDD8C010A
:101E2000892B09F061CE17C0F80165857685D70149
:101E30008D919C918617970781F3ECE4F9E080E09F
:101E400090E0A22DB32D85CEF80187819085019673
:101E500009F006CFF4CE2C960FB6F894DEBF0FBE75
:101E6000CDBFDF91CF911F910F91FF90EF90DF9049
:101E7000CF90BF90AF909F908F907F906F905F902A
:101E80004F903F902F900895EF92FF920F931F93E2
:101E9000CF937C0110E080E090E001E0C3E113C04B
:101EA000FC012081213179F4EC57FF4F20813181F1
:101EB0002150310931832083232B21F4FC01C0837D
:101EC000102F01C0102F2ADD009751F7112311F0B8
:101ED000C70137DACF911F910F91FF90EF900895CE
:101EE000EF92FF920F931F93CF93DF937C0110E04B
:101EF00080E090E001E0D7E1C0E116C0FC01208164
:101F0000263191F4EC57FF4F208131812150310966
:101F100031832083232B39F4FC01D083ED57FF4F0D
:101F2000C083102F01C0102FF9DC009739F711235F
:101F300011F0C70106DADF91CF911F910F91FF9049
:101F4000EF9008951092610A1092600AE3E5FAE0BA
:101F500082E390E0A0E0B0E086839783A087B1871A
:101F6000128680E79FE094878387E6E4FAE08AE0C0
:101F700090E0A0E0B0E086839783A087B1871286C7
:101F800084E49FE0948783870895CF93DF93FC01D7
:101F9000DC01AA57BF4F8C9181FF03C092E190836F
:101FA00002C092E19083DF01AD57BF4F1C9280FFCA
:101FB00005C08FEF9FEF9683858306C08091650AE9
:101FC0009091660A96838583278530893087278399
:101FD000A3E6BAE08D919C9111979287818715961F
:101FE0008C9115978F5F15968C9384832F3F3F4F6D
:101FF00079F4EF0181E498E89383828395D3FE011D
:10200000EC57FF4F8770992701969183808308C012
:1020100081E698E893838283EC57FF4F1182108208
:10202000DF91CF9108950F931F93CF93DF938C018E
:1020300034DCEC01892BA9F182E18883F8018181EC
:102040008983FE01ED57FF4F10826ED3FE01EC57DE
:10205000FF4F877099270196918380833396118271
:102060001082F801418150E0B8016E5F7F4FCE01D0
:10207000029668D381E498E89B838A838FEF9FEF71
:1020800098878F83F801858196819E838D83E3E60F
:10209000FAE0808191819A87898785818F5F858326
:1020A0008C83DF91CF911F910F910895CF93DF9390
:1020B000FC0121852330D9F410C0FC012081263198
:1020C00089F43485298132130DC027E120832A81C8
:1020D000EA57FF4F208381E00BC0FC01C781D08508
:1020E00080E090E01BDC009741F780E001C080E0D9
:1020F000DF91CF910895E091600AF091610A8130FB
:1021000021F048F0823019F004C080E205C081E27D
:1021100003C081E001C080E0DF01AD57BF4F8C9369
:1021200085E180831092610A1092600AE3E6FAE08A
:1021300086A197A1019797A386A308959F92AF9236
:10214000BF92CF92DF92EF92FF920F931F93CF93A4
:10215000DF93C0E0D0E00F2EF4E1AF2EF02D03E6C8
:102160001AE00F2EF7E1DF2EF02D0F2EF6E19F2E55
:10217000F02D0F2EF5E1EF2EF12CF02D0F2EF3E1C7
:10218000CF2EF02D0F2EF1E1BF2EF02D5CC08881F7
:102190008331C1F018F4823139F055C0853139F1FD
:1021A000873109F443C04FC0FE01EC57FF4F8081D7
:1021B0009181892B29F0B88286E49AE0C2D843C085
:1021C000C88241C08091600A9091610A892BD9F53B
:1021D000D093610AC093600AFE01A192CF0192D907
:1021E000F80186A197A1019697A386A32CC0FE01B2
:1021F000ED57FF4F8081811117C02D853E85F80175
:10220000808191812817390769F48B8580FF0AC086
:102210009882FE01EC57FF4FF182E08283E59AE05D
:1022200090D811C0D8820FC0D8820DC0FE01E957E6
:10223000FF4F0190F081E02D309719F4CE0164DB5F
:1022400002C0CE010995CE0169DBEC01892B09F0B2
:102250009ECFDF91CF911F910F91FF90EF90DF9074
:10226000CF90BF90AF909F90089508950CD0E7C095
:10227000DFD040F0D6D030F021F45F3F19F0C8C075
:10228000511111C1CBC0ECD098F39923C9F3552358
:10229000B1F3951B550BBB27AA2762177307840759
:1022A00038F09F5F5F4F220F331F441FAA1FA9F30F
:1022B00033D00E2E3AF0E0E830D091505040E69501
:1022C000001CCAF729D0FE2F27D0660F771F881F62
:1022D000BB1F261737074807AB07B0E809F0BB0B51
:1022E000802DBF01FF2793585F4F2AF09E3F510575
:1022F00068F08EC0D8C05F3FECF3983EDCF3869563
:1023000077956795B795F7959F5FC9F7880F911DEA
:102310009695879597F90895E1E0660F771F881FD6
:10232000BB1F621773078407BA0720F0621B730B89
:10233000840BBA0BEE1F88F7E095089599D088F0CA
:102340009F5790F0B92F9927B751A0F0D1F0660FA1
:10235000771F881F991F1AF0BA95C9F712C0B130BC
:1023600081F0A0D0B1E008959DC0672F782F882715
:10237000B85F39F0B93FCCF3869577956795B395FB
:10238000D9F73EF490958095709561957F4F8F4F6A
:102390009F4F0895E894F92F96EBFF2381F01216D2
:1023A00013061406440B9395F695879577956795D4
:1023B00057954040FF23B9F71BC0992708958823FC
:1023C00051F49850D2F7872B762F652F542F432F37
:1023D000322F20E0B1F3121613061406440B8823A3
:1023E0003AF09A95440F551F661F771F881FCAF74A
:1023F00055234AF4440F551F11F460FF04C06F5F6A
:102400007F4F8F4F9F4F880F9695879597F9089527
:1024100097F99F6780E870E060E008959FEF80EC97
:10242000089500240A94161617061806090608953A
:1024300000240A9412161306140605060895092EA0
:102440000394000C11F4882352F0BB0F40F4BF2B0F
:1024500011F460FF04C06F5F7F4F8F4F9F4F08954F
:1024600057FD9058440F551F59F05F3F71F0479545
:10247000880F97FB991F61F09F3F79F0879508952A
:10248000121613061406551FF2CF4695F1DF08C049
:10249000161617061806991FF1CF86957105610566
:1024A00008940895E894BB2766277727CB0197F90E
:1024B0000895AA1BBB1B51E107C0AA1FBB1FA6178B
:1024C000B70710F0A61BB70B881F991F5A95A9F7DD
:1024D00080959095BC01CD010895A1E21A2EAA1B0A
:1024E000BB1BFD010DC0AA1FBB1FEE1FFF1FA217C4
:1024F000B307E407F50720F0A21BB30BE40BF50BC1
:10250000661F771F881F991F1A9469F76095709549
:10251000809590959B01AC01BD01CF010895A29FCC
:10252000B001B39FC001A39F700D811D1124911DA7
:10253000B29F700D811D1124911D0895DF93CF93DB
:102540001F930F939A9DF02D219FF00D8B9DF00D01
:102550008A9DE02DF10D039FF00D029FE00DF11D0E
:102560004E9DE00DF11D5E9DF00D4F9DF00D7F9392
:102570006F93BF92AF925F934F93D501D0DF8B01E2
:10258000AC01D701CCDFEB01E80FF91FD6011FD05A
:102590002F913F91D601C3DFC60FD71FE81FF91F48
:1025A000AF91BF9114D02F913F91B9DFC60FD71FC4
:1025B000E81FF91FD601B3DFE60FF71F9801BE0130
:1025C000CF0111240F911F91CF91DF910895A7DFC3
:1025D000460F571FC81FD91F08F4319608956894F5
:1025E00001C0E8948F929F92CF93DF9305D0DF9143
:1025F000CF919F908F90089588249924F401E4014D
:10260000B0E49F93AA279A158B049C04ED05FE0560
:10261000CF05D007A10798F4AD2FDC2FCF2FFE2FC9
:10262000E92D982C892E982F872F762F652F542FE0
:10263000432F322F2227B85031F7BF9127C01B2ECE
:10264000BF91BB27220F331F441F551F661F771FE3
:10265000881F991F881C991CEE1FFF1FCC1FDD1FB0
:10266000AA1FBB1F8A149B04EC05FD05CE05DF05E0
:10267000A007B10748F08A189B08EC09FD09CE09AC
:10268000DF09A00BB10B21601A94E1F62EF494013E
:10269000AF01BE01CD01000C08958F929F92AF92C1
:1026A000BF92CF92DF92EF92FF92CF93DF93EC0134
:1026B000688179818A819B81611571058105910508
:1026C00021F464E279ED8BE597E02DE133EF41E011
:1026D00050E041D049015A019B01AC01A7EAB1E4A5
:1026E00056D06B017C01ACEEB4EFA50194015BD038
:1026F000DC01CB018C0D9D1DAE1DBF1DB7FF03C0BE
:102700000197A109B04888839983AA83BB839F77E7
:10271000DF91CF91FF90EF90DF90CF90BF90AF907F
:102720009F908F900895B9CF80E092E0B6CFA0E05F
:10273000B0E08093000290930102A0930202B09354
:1027400003020895FB01DC0102C001900D9241508B
:102750005040D8F70895052E97FB16F400940FD03B
:1027600057FD05D0BADE07FC02D046F408C05095EC
:102770004095309521953F4F4F4F5F4F089590956D
:102780008095709561957F4F8F4F9F4F0895C7DE5D
:10279000A59F900DB49F900DA49F800D911D1124B5
:1027A0000895B7FFF4CFF3DF821B930B0895F894DD
:0227B000FFCF59
:0C27B20001000000C01200000300000045
:00000001FF
