:100000008FC00000ABC00000A9C00000A7C0000066
:10001000A5C00000A3C00000A1C000009FC0000058
:100020009DC000009BC0000099C0000097C0000068
:1000300095C0000093C0000091C000008FC0000078
:100040008DC000004AC2000075C20000A0C20000BE
:1000500017C2000083C0000081C000007FC0000004
:100060007DC000007BC0000079C0000077C00000A8
:1000700075C0000073C0000071C000006FC00000B8
:10008000E0C200000BC3000036C30000ADC2000098
:1000900065C0000063C0000061C000005FC00000D8
:1000A0005DC000005BC0000080C30000ABC3000067
:1000B000D6C300004DC3000051C000002AC4000098
:1000C00055C4000080C40000F7C3000047C0000012
:1000D00045C0000043C0000041C000003FC0000018
:1000E0003DC000003BC0000039C0000037C0000028
:1000F00035C0000033C0000031C000002FC0000038
:100100002DC000002BC0000029C0000027C0000047
:1001100025C0000023C0000021C000001FC0000057
:1001200011241FBECFEFD1E4DEBFCDBF12E0A0E0AF
:10013000B2E0ECE6FCE200E00BBF02C007900D92DB
:10014000A630B107D9F72CE0A6E0B2E001C01D92BD
:10015000A73AB207E1F717D10C94341651CF29D63C
:1001600020910A022223C9F0E091A60C40E0F09110
:100170000A026E2F742F0E9465159B018FEF9FEF6F
:100180006E2F742F0E946515F69FC001F79F900D8A
:100190001124B901680F791F05C06091A60C70E0A9
:1001A0000E946515862F972F089508D62BD610929A
:1001B0000602109207021092080210920902109291
:1001C0000C0210920B022BC6089506D610920A025A
:1001D0000895EBDFFADF07C608950F931F938C0194
:1001E000E8D5AC01A091A60C9801B0E00E94791569
:1001F0008B019C01040F151F211D311D0093060268
:10020000109307022093080230930902009106021E
:1002100010910702209108023091090289012227DA
:1002200033270093060210930702209308023093AD
:1002300009020091060210910702209108023091F4
:100240000902012B022B032B91F000910602109161
:10025000070220910802309109026F5F7F4F460F1D
:10026000571F50930C0240930B02A8D507C0640F90
:10027000751F70930C0260930B02A7D580910B023F
:1002800090910C028436910530F48C599F4F9093D5
:100290000C0280930B0280910B0290910C02A7D567
:1002A0001F910F91089510920A02BBD58093A60C5E
:1002B00008958091060290910702A0910802B091E2
:1002C0000902892B8A2B8B2BC1F080910602909119
:1002D0000702A0910802B09109020197A109B10992
:1002E0008093060290930702A0930802B09309023C
:1002F000892B8A2B8B2B09F468D580910A028F5F9A
:1003000080930A029091A60C891748F010920A0275
:10031000E0910D02F0910E02309709F009950895D1
:100320004DD5E0910F02F0911002309709F0099538
:10033000089590930E0280930D02089590931002F9
:1003400080930F02089504C06150710981099109D9
:100350006115710581059105B9F708952F9A63EC30
:1003600072EA80E090E0EFDF2F9881E00895FC01D1
:100370008785811107C02E9A63EC72EA80E090E0D5
:10038000E2DF2E980895CF93DF93CDB7DEB7629763
:100390000FB6F894DEBF0FBECDBF0E94641561D5C5
:1003A00080E090E0ADD789E392E1B0D787E1ACD6A9
:1003B00081E0A6D66EEA71E081E0AED782E489835F
:1003C0002F9A2E9A63EC72EA80E090E0BCDF2F98BF
:1003D0002E986BE07BE882E090E0B5DF6894AA2479
:1003E000A1F8B12C11E004E0CE0101966C010F2EB2
:1003F000F7EBEF2EF1E0FF2EF02D38D5B886AF8267
:1004000019871A870B87DD86CC861E87F88AEF86C8
:10041000CE010296B9D76BE07BE882E090E093DFF3
:10042000ECCFCF93DF931F92CDB7DEB79FB7998301
:10043000F8949981823040F4E82FF0E0EC59FF4FB6
:1004400060958081682360839FBF0F90DF91CF917B
:100450000895CF93DF931F92CDB7DEB79FB79983EF
:10046000F8949981823038F4E82FF0E0EC59FF4F8E
:100470008081682B60839FBF0F90DF91CF9108959B
:100480001F920F920FB60F9211240BB60F922F935B
:100490003F934F935F936F937F938F939F93AF930C
:1004A000BF93EF93FF93E0912F02F09130023097CA
:1004B00009F00995FF91EF91BF91AF919F918F91B5
:1004C0007F916F915F914F913F912F910F900BBE54
:1004D0000F900FBE0F901F9018951F920F920FB69E
:1004E0000F9211240BB60F922F933F934F935F936C
:1004F0006F937F938F939F93AF93BF93EF93FF93EC
:10050000E0912D02F0912E02309709F00995FF91AC
:10051000EF91BF91AF919F918F917F916F915F917B
:100520004F913F912F910F900BBE0F900FBE0F90E8
:100530001F9018951F920F920FB60F9211240BB6B1
:100540000F922F933F934F935F936F937F938F936C
:100550009F93AF93BF93EF93FF93E0912B02F091A2
:100560002C02309709F00995FF91EF91BF91AF915F
:100570009F918F917F916F915F914F913F912F91BB
:100580000F900BBE0F900FBE0F901F9018951F92EB
:100590000F920FB60F9211240BB60F922F933F9329
:1005A0004F935F936F937F938F939F93AF93BF937B
:1005B000EF93FF93E0912902F0912A02309709F01E
:1005C0000995FF91EF91BF91AF919F918F917F918D
:1005D0006F915F914F913F912F910F900BBE0F90B4
:1005E0000FBE0F901F9018951F920F920FB60F928B
:1005F00011240BB60F922F933F934F935F936F93FA
:100600007F938F939F93AF93BF93EF93FF93E0916B
:100610002702F0912802309709F00995FF91EF9198
:10062000BF91AF919F918F917F916F915F914F910A
:100630003F912F910F900BBE0F900FBE0F901F9008
:1006400018951F920F920FB60F9211240BB60F92AE
:100650002F933F934F935F936F937F938F939F93CA
:10066000AF93BF93EF93FF93E0912502F0912602A1
:10067000309709F00995FF91EF91BF91AF919F914C
:100680008F917F916F915F914F913F912F910F903B
:100690000BBE0F900FBE0F901F9018951F920F92D8
:1006A0000FB60F9211240BB60F922F933F934F93D7
:1006B0005F936F937F938F939F93AF93BF93EF93CA
:1006C000FF93E0912302F0912402309709F00995FD
:1006D000FF91EF91BF91AF919F918F917F916F911A
:1006E0005F914F913F912F910F900BBE0F900FBED6
:1006F0000F901F9018951F920F920FB60F92112412
:100700000BB60F922F933F934F935F936F937F930B
:100710008F939F93AF93BF93EF93FF93E091210249
:10072000F0912202309709F00995FF91EF91BF9166
:10073000AF919F918F917F916F915F914F913F9179
:100740002F910F900BBE0F900FBE0F901F9018951A
:100750001F920F920FB60F9211240BB60F922F9388
:100760003F934F935F936F937F938F939F93AF9339
:10077000BF93EF93FF93E0911F02F0912002309717
:1007800009F00995FF91EF91BF91AF919F918F91E2
:100790007F916F915F914F913F912F910F900BBE81
:1007A0000F900FBE0F901F9018951F920F920FB6CB
:1007B0000F9211240BB60F922F933F934F935F9399
:1007C0006F937F938F939F93AF93BF93EF93FF9319
:1007D000E0911D02F0911E02309709F00995FF91FA
:1007E000EF91BF91AF919F918F917F916F915F91A9
:1007F0004F913F912F910F900BBE0F900FBE0F9016
:100800001F9018951F920F920FB60F9211240BB6DE
:100810000F922F933F934F935F936F937F938F9399
:100820009F93AF93BF93EF93FF93E0911B02F091DF
:100830001C02309709F00995FF91EF91BF91AF919C
:100840009F918F917F916F915F914F913F912F91E8
:100850000F900BBE0F900FBE0F901F9018951F9218
:100860000F920FB60F9211240BB60F922F933F9356
:100870004F935F936F937F938F939F93AF93BF93A8
:10088000EF93FF93E0911902F0911A02309709F06B
:100890000995FF91EF91BF91AF919F918F917F91BA
:1008A0006F915F914F913F912F910F900BBE0F90E1
:1008B0000FBE0F901F9018951F920F920FB60F92B8
:1008C00011240BB60F922F933F934F935F936F9327
:1008D0007F938F939F93AF93BF93EF93FF93E09199
:1008E0001702F0911802309709F00995FF91EF91E6
:1008F000BF91AF919F918F917F916F915F914F9138
:100900003F912F910F900BBE0F900FBE0F901F9035
:1009100018951F920F920FB60F9211240BB60F92DB
:100920002F933F934F935F936F937F938F939F93F7
:10093000AF93BF93EF93FF93E0911502F0911602EE
:10094000309709F00995FF91EF91BF91AF919F9179
:100950008F917F916F915F914F913F912F910F9068
:100960000BBE0F900FBE0F901F9018951F920F9205
:100970000FB60F9211240BB60F922F933F934F9304
:100980005F936F937F938F939F93AF93BF93EF93F7
:10099000FF93E0911302F0911402309709F009954A
:1009A000FF91EF91BF91AF919F918F917F916F9147
:1009B0005F914F913F912F910F900BBE0F900FBE03
:1009C0000F901F9018951F920F920FB60F9211243F
:1009D0000BB60F922F933F934F935F936F937F9339
:1009E0008F939F93AF93BF93EF93FF93E091110287
:1009F000F0911202309709F00995FF91EF91BF91A4
:100A0000AF919F918F917F916F915F914F913F91A6
:100A10002F910F900BBE0F900FBE0F901F90189547
:100A20001F93CF93DF931F92CDB7DEB72FB72983E4
:100A3000F8941981009709F457C08837910539F463
:100A400061E080E0EEDC60E180E0EBDC4DC0803C0A
:100A5000910521F462E080E0E4DC46C08C3491052D
:100A600021F464E080E0DDDC3FC08038910521F4B2
:100A700068E080E0D6DC38C08434910521F460E27F
:100A800080E0CFDC31C0803B910521F460E480E060
:100A9000C8DC2AC0883B910521F460E880E0C1DC15
:100AA00023C0883C910521F461E081E0BADC1CC0E0
:100AB0008039910521F468E081E0B3DC15C0803A0B
:100AC000910521F460E181E0ACDC0EC0803221E0D0
:100AD000920721F460E281E0A4DC06C083349140F7
:100AE00019F460E481E09DDC1FBF0F90DF91CF918E
:100AF0001F9108951F93CF93DF931F92CDB7DEB759
:100B00002FB72983F8941981009709F457C08837C3
:100B1000910539F461E080E09CDC60E180E099DCE3
:100B20004DC0803C910521F462E080E092DC46C03B
:100B30008C34910521F464E080E08BDC3FC0803888
:100B4000910521F468E080E084DC38C084349105AC
:100B500021F460E280E07DDC31C0803B910521F42E
:100B600060E480E076DC2AC0883B910521F460E8EF
:100B700080E06FDC23C0883C910521F461E081E0D6
:100B800068DC1CC08039910521F468E081E061DCFB
:100B900015C0803A910521F460E181E05ADC0EC075
:100BA000803221E0920721F460E281E052DC06C04D
:100BB0008334914019F460E481E04BDC1FBF0F9057
:100BC000DF91CF911F9108958038910529F470939A
:100BD000300260932F0208958039910529F47093B3
:100BE0002802609327020895803A910529F47093B2
:100BF000200260931F0208958032914021F4709387
:100C000018026093170208958038910529F47093B3
:100C10002E0260932D0208958039910529F4709376
:100C20002602609325020895803A910529F4709375
:100C30001E0260931D0208958032914021F470934A
:100C400016026093150208950895FC019C01205F2F
:100C50003F4FAEE3B1E081918C93E217F307D9F7F0
:100C600080915102806880933C01EDE3F1E0808146
:100C700080FFFDCF08950F931F93CF93DF93CDB7E0
:100C8000DEB760970FB6F894DEBF0FBECDBF062F5C
:100C9000142F0097C9F01092520222E02093040210
:100CA00020E1FC01A1E4B2E001900D922A95E1F768
:100CB000DC01AC01405F5F4F2FE331E09D91F90112
:100CC00090834A175B07D1F7112319F0113089F08F
:100CD00048C080910402813079F5E1E4F2E021E539
:100CE00032E0AFE3B1E081918C932E173F07D9F743
:100CF00023C0809104028130B1F1809152028111B0
:100D000036C01092510210923C01CE0101969DDF37
:100D1000E1E3F2E021E432E0AFE3B1E08C918193D2
:100D20002E173F07D9F781E08093520220C08191AE
:100D30008C932E173F07D9F7109304020230A8F4C2
:100D4000F0E20F9FC0011124082F0072110F110F44
:100D5000110F1870102B1093510210933C0181E079
:100D60000DC080E00BC080E009C080E007C0E1E377
:100D7000F2E021E432E0AFE3B1E0D9CF60960FB604
:100D8000F894DEBF0FBECDBFDF91CF911F910F91C1
:100D90000895FC019C01205F3F4FAEE3B1E08C91D0
:100DA0008193E217F307D9F7089583CA0895B8CA63
:100DB000089580918400909185000895EFE6F0E019
:100DC00080818D7F8083B19A0895B19AEFE6F0E03B
:100DD0008081826080830895EFE6F0E08081816009
:100DE0008083B09A089580E890E084CE0895E9E881
:100DF000F0E02081922B9083E8E8F0E09081892B4D
:100E000080830895CF93DF931F92CDB7DEB78FB75E
:100E10008983F89489810F90DF91CF9108958FBFD6
:100E20000895CF93DF9380E890E0FADD65ED76E0FA
:100E300080E890E0C9DECFE6D0E0888181608883D9
:100E400067ED76E080E890E0DFDE88818D7F888343
:100E5000E1E8F0E080818160808381E0DF91CF91E3
:100E6000089579D0F1DE37D130C20895B2D15DD284
:100E7000A5C00895A0D10C941B1208950F931F9341
:100E8000CF93DF93EC01809153029091540200972D
:100E900009F445C04E815F8168857985FC01028136
:100EA000138124813581401751076207730760F071
:100EB000DC0117C00281138124813581401751075D
:100EC0006207730768F403C0FC01A0E0B0E0041BF4
:100ED000150B260B370B02831383248335830AC03B
:100EE000DF01401B510B620B730BED91FC911197CD
:100EF000309701F74A835B836C837D83109741F0C1
:100F00008D919C91119799838883CD93DC9315C023
:100F100099838883D0935402C09353020EC01982E0
:100F200018828E819F81A885B9858A839B83AC8333
:100F3000BD83D0935402C0935302DF91CF911F9190
:100F40000F91089580916D0C8F5F80936D0C80E1FF
:100F500097E243C9089510926D0C82EA97E0EED9AA
:100F6000A2D980E197E239D910925402109253022B
:100F70000895E0915302F0915402309771F0E81710
:100F8000F90721F40CC08E179F0759F00190F081EA
:100F9000E02D3097C1F780E0089580E0089581E06A
:100FA000089581E00895CF93DF93EC01E2DF811192
:100FB00002C0CE0163DFDF91CF910895CF92DF921F
:100FC000EF92FF920F931F93CF93DF931F92CDB7B2
:100FD000DEB780916D0C882309F453C08FB78983E5
:100FE000F8948981C0906D0C10926D0C8FBFD12C3C
:100FF000E12CF12CCC0CDD1CEE1CFF1CD701C60132
:10100000880F991FAA1FBB1F880F991FAA1FBB1FFC
:10101000C80ED91EEA1EFB1E1BC0C81AD90AEA0A4E
:10102000FB0AD8018D919C91119790935402809363
:1010300053021A968C91813011F4C8011FDFD80138
:101040001B96ED91FC911C97309711F0C801099502
:1010500000915302109154020115110591F0F8010D
:1010600082819381A481B581C816D906EA06FB0660
:10107000A0F68C199D09AE09BF0982839383A483CE
:10108000B5830F90DF91CF911F910F91FF90EF905B
:10109000DF90CF900895A2E4B1E023E0E1E4F1E035
:1010A0002C9390819F719830D9F7A2E4B1E0E1E4EC
:1010B000F1E08C9390819F718913FBCF089588E0B4
:1010C000EADF8FEF80934F0180915502882311F062
:1010D00086E1E1CF089560E481E0A3D9E9E3F1E09E
:1010E0008081816080831092550281E08093D602D6
:1010F00088E0D1DFECE4F1E08081806880830895AE
:1011000080935502DCCF08958F71E8E4F1E090817F
:10111000907E892B80830895CF93DF9300D0CDB745
:10112000DEB79A838983809362018A818093630109
:101130000F900F90DF91CF910895CF93DF9300D060
:10114000CDB7DEB79A838983809360018A818093CB
:10115000610199818A81890F80936D010F900F90B1
:10116000DF91CF910895CF93DF93EC0189E193DF75
:101170008FEF80934F0188818E5F809380018881FB
:10118000882381F020E0822F90E0FC01EF57FE4F92
:10119000DE01A80FB91F11968C9180832F5F888183
:1011A000281788F383E08093D60282E0809342017F
:1011B000DF91CF910895CF93DF93EC01CB0140E015
:1011C00060E059DDCE0141DDCE01E3DDDF91CF915D
:1011D00008951F93CF93DF9300D000D01F92CDB717
:1011E000DEB78091D602823009F466C080914F014B
:1011F00083FF3EC0A0917B016A2F70E0AB014F5F7F
:101200005F4F80E090E020E0FC01E058FE4F30812D
:10121000FC01EA5AFD4F30832F5F822F90E0841744
:10122000950794F386E592E09A838983A250AB8375
:10123000FB01EA5AFD4F80818C83809147018A55DA
:101240008D83CE0101965BD6E1E4F1E080818F7160
:101250008631E1F7EFE4F1E0808188608083ECE49F
:10126000F1E080818F77808380818068808324C0D3
:1012700080914F0186FF20C0809141018F7189319B
:10128000B1F41091420112951695177049F0133080
:1012900021F0153021F013E003C011E001C012E08D
:1012A0000EDF81E08093D602812F0E949B14EFE431
:1012B000F1E08081806480830F900F900F900F90F9
:1012C0000F90DF91CF911F910895EEE6FCE014821C
:1012D00015821182108217AA16AAE4E7FCE084E9BD
:1012E0009CE011921192E817F907D9F70E94AF1309
:1012F000E9D51AD144D09DD10E94051269C4089540
:1013000090936F0C80936E0C18CF08959093710C8E
:101310008093700C01CF0895E82FF0E0EE0FFF1FCF
:10132000EC58F34F7183608308951DD60E94BE145C
:101330004FD00C945C120895E091D702F091D8023E
:101340003097D9F0228133818217930789F405C041
:10135000228133812817390759F4DC01AD57BF4F7B
:101360002C91278713962C91208B22E0248305C093
:101370000190F081E02D309759F718C1089510922F
:10138000D8021092D7020895FC01148217861382A6
:101390001282AEE6BCE0D6968D919C91D7970196CD
:1013A000D7969C938E93D6978091D7029091D8022E
:1013B000009739F411821082F093D802E093D7029B
:1013C000089591838083F093D802E093D702089523
:1013D0000F931F93CF93DF93E091D702F091D80240
:1013E000309709F49CC0EF018C81882321F0823072
:1013F00009F46FC08EC0A3D08C01009721F482E065
:101400008C838F878CC09B838A8381E08C83F801D7
:10141000E957FF4F8CE999E0918380833197898563
:1014200082FB882780F980839985D8011B968C914F
:101430001B9790FB80F91B968C931B97998593FBC8
:10144000992790F990FB82F91B968C931B979985AD
:101450009695917090FB81F91B968C931B97EEE605
:10146000FCE084818F5F84831C968C931C97808121
:1014700091811E969C938E931D978D819E8150968F
:101480009C938E931F978885982F9F7051968C916F
:101490005197807F892B51968C9351979F8192957C
:1014A000907F8F70892B51968C93F801EF57FF4FE7
:1014B0004C8550E06A857B85808191810E94DD1595
:1014C000F80191818C85890F8183C8010E94D21314
:1014D00026C0EC17FD0741F4808191819093D802DA
:1014E0008093D7020AC0FC01808191818C179D07EF
:1014F000D1F78881998191838083EEE6FCE086A90B
:1015000097A9019797AB86ABED85FE85CE0109952E
:1015100006C00990D881C02D209709F065CFDF91D2
:10152000CF911F910F910895E9EDF2E083E398E0E8
:101530001082E757FF4FE817F907D1F70895809118
:10154000D902882349F0E2E6F3E081E090E0AC01C3
:101550002081211122C002C040E050E069E8649F70
:101560009001659F300D1124C90187529D4FFC01E8
:1015700011926A95E9F740E1FC014183EF57FF4F73
:1015800025513D4F31832083EEE6FCE026A937A9A3
:101590002F5F3F4F37AB26AB08950196E757FF4FBC
:1015A0008A309105A1F680E090E00895FC01108258
:1015B000EEE6FCE086A997A9019797AB86AB089564
:1015C000009741F0FC01E757FF4F88E0E333F8074D
:1015D00018F012C0E9EDF2E08081882321F00FC0FD
:1015E000808181110FC0E757FF4F88E0E333F80790
:1015F000B8F380E090E0089580E090E008958E2FA9
:101600009F2F08958E2F9F2F0895FC01DC01AD5769
:10161000BF4F1C92AEE6BCE014969C9114979F5F5E
:1016200014969C93149794878D919C9196878587A7
:101630000895A4E3B8E080E090E04FEF5FEF1196EB
:101640005C934E93FC01EE0FFF1FEE0FFF1FEE0F9A
:10165000FF1FE81BF90BED5CF74F20812E7F2083E5
:1016600014961C921497019617968436910539F7B3
:1016700008950F931F93CF93DF93E4E3F8E020E006
:1016800030E0062F10E04081518148175907B1F42E
:10169000D901AA0FBB1FAA0FBB1FAA0FBB1FA21BFA
:1016A000B30BAD5CB74F4C9146954170C42F40E0F1
:1016B000D42FC017D10711F4CD0108C02F5F3F4FC1
:1016C000379624363105F9F680E090E0DF91CF912E
:1016D0001F910F910895A0E0B0E0E3E3F8E080816E
:1016E00080FD0DC08581882381F0109739F0159613
:1016F0009C911597891718F4DF0101C0DF01379617
:101700008AE0EF3EF80759F7FD0180818D70806314
:10171000808380E88583CF010895FC01808180FD6E
:1017200005C08FEF9FEF9283818315820895A1DF1B
:10173000009721F0FC018381948108958FEF9FEF42
:101740000895EF92FF920F931F93CF93DF938C0135
:10175000C62F7A01D22F8DDFFC01892B11F4BBDF5C
:10176000FC0112830183F482E3828081C0FB81F952
:101770008F708063808380E88583D683DF91CF91EB
:101780001F910F91FF90EF90089573DF009709F07C
:10179000C4CF08950895CF93DF93FC018785908986
:1017A0008F3F2FEF9207D9F1EF01638563FB662727
:1017B00060F95FDFDC01892B91F18C9180FD2FC0F6
:1017C000FE01ED57FF4F8081811119C08C918F7000
:1017D00080638C9315968C9115978F5F15968C93DB
:1017E0008F3FE9F4E8E3F8E024EF3AE08081869562
:1017F0008F5F80833796E217F307C1F710C09C9183
:10180000892F82958F70815F8F70282F2295207F7E
:101810009F70922B9C93811102C0CD017EDFDF91DE
:10182000CF910895CF93DF93FC01878590898F3FF7
:101830002FEF920729F48FEF9FEF9087878312C0D5
:10184000238522FF03C0908787830CC0EF01638547
:1018500063FB662760F96BDF98878F83019611F42D
:10186000CE01D2D1DF91CF910895AF92BF92CF92A6
:10187000DF92EF92FF921F93CF93DF93EC011B85D2
:1018800013FB112710F9CF84D888612FC6014FDFD1
:10189000019659F0FE01E957FF4F118210823197EE
:1018A00082E08083CE017ED722C0AD84BE8447DE35
:1018B0007C010097D1F0A9DEF70181818A5F8183E5
:1018C000E957FF4F11821082F701B08AA786EF57C0
:1018D000FF4F0190F081E02D81E08083B282A182F0
:1018E000D482C3821583C7015DD7CE015FDEDF914D
:1018F000CF911F91FF90EF90DF90CF90BF90AF906E
:101900000895FC012185263049F40780F085E02DFB
:1019100065818381948139DF81E0089580E00895B5
:101920000F931F93CF93DF93ECEFFAE020E030E0CA
:101930008901A185B285AB2BB1F0A081B181A81737
:10194000B90789F4A281B381A617B70761F454815E
:10195000541309C02BE0209FC001219F900D11243A
:101960008450954F08C02F5F3F4F3B96253031057F
:10197000F9F680E090E0DF91CF911F910F910895EB
:10198000CF93DF938091050B9091060B892B51F03B
:10199000E0E1FBE081E090E0AC0120813181232B8C
:1019A000A9F402C040E050E08BE0849FE001859FF5
:1019B000D00D1124C450D54F1F82188688EE93E0B5
:1019C0009A8789878FEE9AE0EEDA07C001963B96F8
:1019D0008530910509F7C0E0D0E0CE01DF91CF91CD
:1019E00008953F924F925F926F927F928F929F9253
:1019F000AF92BF92CF92DF92EF92FF920F931F931D
:101A0000CF93DF935C01CCEFDAE00F2EF3E3EF2E00
:101A1000FBE0FF2EF02D412C0F2EFEE6CF2EFCE03A
:101A2000DF2EF02D512C612C772473948E01898543
:101A30009A858536910530F0845691099A87898771
:101A4000472C30C01A86198628813981F601808199
:101A500091812817390731F53884852C962C1DC0C3
:101A6000F40180818034C9F4F80122813381F401CA
:101A7000878590892817390781F4838583FB882718
:101A800080F9F8019481981308C0332019F0C4013B
:101A900089D603C061E1C40143D7C40191DD4C0183
:101AA000892BF1F62B96CE15DF0509F0BFCF442028
:101AB00011F0C50178DADF91CF911F910F91FF905E
:101AC000EF90DF90CF90BF90AF909F908F907F90DE
:101AD0006F905F904F903F900895FF920F931F93E8
:101AE000CF93DF938C01F62E2ADDEC01009751F1A4
:101AF0008CDD8981895F8983FE01E957FF4F11825F
:101B000010828B8584608B878FEF9FEF988B8F87F8
:101B100036970190F081E02D82E08083D8018D918D
:101B20009C9111979283818312968D919C9113972A
:101B30009483838314968C918583F682CE0132D66A
:101B400081E001C080E0DF91CF911F910F91FF9064
:101B50000895EF92FF920F931F93CF93DF938C0121
:101B6000E62EF42EECDCEC01009759F14EDD898174
:101B7000885F8983FE01E957FF4F118210823197F8
:101B800084E08083D80115968D919C911697988B4F
:101B90008F8735970190F081E02D83E080838D91D0
:101BA0009C9111979283818312968D919C911397AA
:101BB0009483838314968C918583E682F782CE0189
:101BC000F1D5DF91CF911F910F91FF90EF90089584
:101BD000ECEFFAE012861186158A148A10A2178E8D
:101BE00013A612A616AA15AAEFEEFAE084E690E074
:101BF000A0E0B0E086839783A087B187128681EF4B
:101C00009CE0948783870895CF93DF93EC014B8505
:101C100043FB442740F96F85788980916E0C909141
:101C20006F0C7EDE892B19F080E4888321C0A8DE4A
:101C30000097D9F020916E0C30916F0CFC0131832C
:101C400020832F853889338322832B8523FB22270A
:101C500020F924832FEF3FEF368325836FEF3DDF9D
:101C6000882319F080E4888303C061E1CE0158D64F
:101C7000DF91CF910895AF92BF92CF92DF92EF9212
:101C8000FF920F931F93CF93DF93DC0119962C9152
:101C90001997273009F062C01796CD91DC911897FB
:101CA0004D81411167C06B817C8120916E0C309118
:101CB0006F0CE981FA812E173F0709F451C06217B2
:101CC000730729F033230CF44DC0B12C02C0BB24A0
:101CD000B3948C01CE80DC011A968C91C89E600171
:101CE00011246B817C81CF011BDE7C01009729F0E0
:101CF000FC0187818D1528F037C042DE7C01892BDD
:101D0000A9F189819A81D70111969C938E938B8139
:101D10009C8113969C938E9312978D8114968C932D
:101D20001497F8018081918116969C938E93159754
:101D30001796DC92BB2069F0408151812D2D60E027
:101D400089819A81FEDC4FEF6D2DC70102DF81E0B2
:101D50001CC06D2DC701C1DE81E017C080E015C039
:101D600081E013C081E011C081E00FC081E00DC0AF
:101D700081E00BC0E981FA8120916E0C30916F0CEB
:101D8000E217F30709F09ECFF3CFDF91CF911F91B8
:101D90000F91FF90EF90DF90CF90BF90AF9008959C
:101DA000CF92DF92EF92FF920F931F93CF93DF9327
:101DB000FC012185283009F042C08C01C781D08503
:101DC0006B817C814D8189819A81AADD7C01892B7F
:101DD000C1F18E81F70190859817A8F5F801C284AA
:101DE0009F81F701808749815A8120916E0C309143
:101DF0006F0C4217530751F4F801408151812E8135
:101E00006D818B819C819DDC81E01EC09C9D600169
:101E10001124F801408151812D2D6D818B819C8190
:101E200090DCF70145815681278160E089819A81A4
:101E300088DC4D2D6E81C7018CDE81E005C080E01D
:101E400003C081E001C081E0DF91CF911F910F912C
:101E5000FF90EF90DF90CF900895DC0119962C91C0
:101E600019972223A9F01796ED91FC9118972081DC
:101E7000213041F028F0223039F0233039F00AC007
:101E800029C508953ECD0895F6CE089589CF0895C9
:101E900080E0089580E00895BC01E5E4FBE02FE3D5
:101EA0003CE040E051E09081992319F091509083FB
:101EB000452F3596E217F307B1F7442311F0CB0114
:101EC00072C80895E5E4FBE08FE39CE0108235964C
:101ED000E817F907D9F7E3E3FBE084E690E0A0E038
:101EE000B0E086839783A087B18712868CE49FE059
:101EF000948783876DE27FE080E00ECA0895CF93D8
:101F0000DF93DC01ED91FC91119721812838F1F4E8
:101F100020812F7D2134D1F412962C912031B0F004
:101F2000EC010DDB009791F020E2FC0120832A8177
:101F300021832B81ED57FF4F20832C813196208305
:101F40004A8150E068817981029637D6DF91CF913E
:101F50000895662321F022E2FC012083089524E203
:101F6000FC01208308952F923F924F925F926F92CF
:101F70007F928F929F92AF92BF92CF92DF92EF9219
:101F8000FF920F931F93CF93DF93CDB7DEB72C97BC
:101F90000FB6F894DEBF0FBECDBF00E010E00F2EED
:101FA000F4E2BF2EF02D0F2EFEE6EF2EFCE0FF2E0A
:101FB000F02D442443946894772474F8689466243C
:101FC00063F86894552452F8212C312C0F2EF5E13A
:101FD000AF2EF02DCC24C394D12CF0C1D8018C911C
:101FE000823209F41BC130F4803259F0813209F495
:101FF00011C1E4C1833209F4DCC1843209F4DCC1CB
:10200000DDC1F801B082838583FDD8C12581368189
:102010002F3F3F4FC9F4D8011F962D913C91509707
:10202000F701408151814217530721F02F3F3F4F65
:1020300009F0C4C181FF04C0E1E2D801EC93BEC144
:10204000E2E2D801EC93BAC1D8011F962D913C91E0
:1020500050972F3F3F4F11F480FDB0C1F701208111
:102060003181D8011D968D919C911E9728173907B3
:1020700009F4A4C1C8018EDBE1E4FBE080E090E05C
:10208000822C932C9C014481442309F474C0D80110
:102090001D966D917C911E97408151816417750743
:1020A00009F06AC01C968C911C97F901EE0FFF1F76
:1020B000EE0FFF1FE20FF31FEF5BF44F9281981BAF
:1020C000983008F03EC0F901EE0FFF1FEE0FFF1F22
:1020D000E20FF31FEF5BF44F8381482F50E0092E8E
:1020E00002C0559547950A94E2F740FF17C0F701E3
:1020F0002081318117968D919C9118972817390767
:1021000009F05CC11B966C911B9763FB662760F915
:102110001F968D919C91509738DB50C1F901EE0FBD
:10212000FF1FEE0FFF1F2E0F3F1FF901EF5BF44F54
:10213000960102C0220F331F9A95E2F7822B838308
:1021400044C1F901EE0FFF1FEE0FFF1F2E0F3F1FBF
:10215000F901EF5BF44F82838381282F30E0919562
:10216000A90102C0440F551F9A95E2F7CA01816088
:102170008383A4822AC14F0101963596823391054B
:1021800009F080CF8114910409F418C1D8011D967B
:102190008D919C911E97F401918380831C968C9164
:1021A00082834382A48283E39BE00E94D3070DC114
:1021B000D7012D913C91F80187859089281739071F
:1021C00081F0438542FD0BC0C80140D3D7012D915A
:1021D0003C91F801878590892817390711F00196FD
:1021E00069F4D8011B968C911B9781FF03C0E1E233
:1021F000EC93E4C0E2E2D801EC93E0C0D80117967A
:102200008D919C9118978217930709F0D7C0E3E24C
:10221000EC93D4C060E0C801FFD0D0C01092400B56
:10222000D80151968C91519782958F70E82FF0E0EC
:10223000EE0FFF1FEC58F34F0190F081E02D309727
:1022400009F460C01D962D913C911E973A83298315
:102250001F964D915C9150975C834B8351969C9156
:1022600051979F709D838E83AF57BF4F8D919C91E7
:1022700099878887B8016E5F7F4F861B970BD801BF
:1022800011969C911197981B9A87AD57BF4F8C91CF
:102290008B8711968C918C87D8011B969C91692F06
:1022A000637092FD02C080E001C080E2862B93FD46
:1022B00002C090E001C090E4892B4F3F5F4F11F0C6
:1022C00090E001C0952D892BD80119964D915C9114
:1022D0001A972417350711F090E001C0962D892B2D
:1022E0008F83D80115962D913C9116972F3F3F4F24
:1022F00011F090E001C0972D892B8F83CE010196BC
:10230000099501C080E0F801938590FF80E0D80135
:1023100017962D913C9118972F3F3F4F69F4F70185
:1023200040815181D8011F962D913C9150974217C1
:10233000530711F493FF842DF801258136812F3F37
:102340003F4FA1F1D7012D913C912F3F3F4F71F1AC
:10235000882361F1F4D84C01009741F156D9F4017A
:1023600081818D5F8183E957FF4F11821082D801EF
:102370001B968C911B9786958170F401938580FB49
:1023800091F993871D968D919C911E97908B8787CD
:10239000EF57FF4F0190F081E02D10828091400BAC
:1023A00082831C968C918183C401FCD1D801BC929C
:1023B00005C0C8015ADA02C0C801F8D8C80100D95E
:1023C0008C01892B09F00ACE07C0F801878190851E
:1023D000019609F0FBCEECCE2C960FB6F894DEBF3A
:1023E0000FBECDBFDF91CF911F910F91FF90EF9066
:1023F000DF90CF90BF90AF909F908F907F906F9025
:102400005F904F903F902F9008951092500C109233
:102410004F0C10924E0C0895662321F020E3FC012E
:10242000208303C021E3FC0120838091500C8F5F47
:102430008093500C0895CF93DF93C0914E0CD091B0
:102440004F0CFE01EF57FF4FA081B18170914C0CF2
:10245000872F90E050914D0C652F513108F060E1CD
:102460006623D1F040914B0CEBE3FCE0A80FB91FC1
:102470002FEF260F30E0245C334F9C918081892719
:102480008D93442311F0808303C09081892780833A
:102490003196E217F30789F7760F70934C0C561BB1
:1024A00050934D0C552319F082E3888302C084E3D6
:1024B0008883DF91CF9108950F931F93CF93DF937C
:1024C0008091500C882309F4E3C0E0914E0CF09108
:1024D0004F0C309709F4D5C08081843309F055C082
:1024E00080914C0CDF01AF57BF4FCD91DC91C80FED
:1024F000D11DABE3BCE00D911D912D913C91139743
:1025000014964D915D916D917C9117970427152735
:102510002627372718964D915D916D917C911B97D9
:1025200004271527262737271C964D915D916D911D
:102530007C911F97D901C80184279527A627B72723
:1025400020914B0C222351F088839983AA83BB836B
:1025500081818C5F8183CF01EAD10DC061E0088168
:1025600019812A813B81081719072A073B0709F0BF
:1025700060E0CF01EEDC10924F0C10924E0C809177
:10258000500C81508093500C83C0823309F080C07E
:1025900083E3808364E97CE08BE39CE00E943A075C
:1025A00077C0DC012C912053223008F06CC090934E
:1025B0004F0C80934E0CEBE3FCE01C964C911C9767
:1025C00050E060E070E040835183628373831F9624
:1025D0004D915C91509760E070E0BA015527442717
:1025E00051962C91519722952F70422B44835583FD
:1025F000668377831D964D915C911E9760E070E035
:10260000BA015527442751962C9151972F70422B90
:10261000408751876287738715964D915C91169715
:1026200060E070E0BA01552744271B962C911B9758
:10263000422B44875587668777876C91613331F4E5
:1026400011962C911197245011962C93FC01EF5761
:10265000FF4F408151819C012E5F3F4F421B530B26
:10266000FC012181241B20934D0C10924C0C21E085
:10267000603309F020E020934B0C22E3DC012C9323
:1026800007C080E090E00E94E00A009709F089CF3F
:10269000DF91CF911F910F910895EF92FF920F93C9
:1026A0001F93CF937C0110E080E090E001E0C3E154
:1026B00013C0FC012081213179F4EC57FF4F2081B8
:1026C00031812150310931832083232B21F4FC01F6
:1026D000C083102F01C0102F0E94E00A009749F715
:1026E000112319F0C7010E94D307CF911F910F91B9
:1026F000FF90EF900895EF92FF920F931F93CF9367
:10270000DF937C0110E080E090E001E0D7E1C0E1E0
:1027100016C0FC012081263191F4EC57FF4F208137
:1027200031812150310931832083232B39F4FC017D
:10273000D083ED57FF4FC083102F01C0102F0E9490
:10274000E00A009731F7112319F0C7010E94D3075F
:10275000DF91CF911F910F91FF90EF90089510920C
:102760006C0C10926B0CEEE5FCE082E390E0A0E0D4
:10277000B0E086839783A087B18712868BE793E1C9
:1027800094878387E1E5FCE08AE090E0A0E0B0E098
:1027900086839783A087B18712868DE493E194871F
:1027A00083870895CF93DF93EC01FC01EA57FF4F35
:1027B000808181FF03C092E1988308C09B8591FFCF
:1027C00003C090E1988302C092E19883FE01ED5727
:1027D000FF4F108280FF05C02FEF3FEF3E832D8318
:1027E00006C02091700C3091710C3E832D83857052
:1027F00019F4CE0117D804C08F85988998878F83E4
:10280000EEE6FCE0808191819A87898785818F5FE0
:1028100085838C838F819885019669F481E498E89B
:102820009B838A83BCD1CC57DF4F87709927019651
:102830009983888308C081E698E89B838A83CC5774
:10284000DF4F19821882DF91CF9108950F931F9364
:10285000CF93DF938C010E949F0AEC01892BA9F191
:1028600082E18883F80181818983FE01ED57FF4F62
:10287000108295D1FE01EC57FF4F87709927019682
:1028800091838083339611821082F801418150E058
:10289000B8016E5F7F4FCE0102968FD181E498E838
:1028A0009B838A838FEF9FEF98878F83F8018581C1
:1028B00096819E838D83EEE6FCE0808191819A87EC
:1028C000898785818F5F85838C83DF91CF911F916D
:1028D0000F910895CF93DF93FC0121852330E1F41C
:1028E00010C0FC012081263189F4348529813213FE
:1028F0000DC027E120832A81EA57FF4F208381E022
:102900000CC0FC01C781D08580E090E00E94E00A05
:10291000009739F780E001C080E0DF91CF91089502
:1029200027E1FC012083ED57FF4F6083089522E1EA
:10293000FC0120830895E0916B0CF0916C0C8130C8
:1029400021F048F0823019F004C080E205C081E235
:1029500003C081E001C080E0DF01AD57BF4F8C9321
:1029600085E1808310926C0C10926B0CEEE6FCE01B
:1029700086A997A9019797AB86AB08959F92AF92CE
:10298000BF92CF92DF92EF92FF920F931F93CF935C
:10299000DF93C0E0D0E00F2EF4E1AF2EF02D0EE675
:1029A0001CE00F2EF7E1DF2EF02D0F2EF6E19F2E0B
:1029B000F02D0F2EF5E1EF2EF12CF02D0F2EF3E17F
:1029C000CF2EF02D0F2EF1E1BF2EF02D6AC08881A1
:1029D0008331F9F028F4803149F0823159F061C037
:1029E000853171F1873109F44BC05BC061E0CE01E4
:1029F00013DD57C0FE01EC57FF4F80819181892B79
:102A000031F0B88281E59CE00E94D3074AC0C882B9
:102A100048C080916B0C90916C0C892B09F041C0DF
:102A2000D0936C0CC0936B0CFE01A192CF010E945D
:102A3000B308F80186A997A9019697AB86AB31C078
:102A4000FE01ED57FF4F8081811118C02D853E8515
:102A5000F801808191812817390771F48B8580FFF7
:102A60000BC09882FE01EC57FF4FF182E0828EE5A9
:102A70009CE00E94D30715C0D88213C0D88211C031
:102A8000CE010E94CB0BFE01E957FF4F0190F08170
:102A9000E02D309721F4CE010E94D60A02C0CE016B
:102AA0000995CE010E94E00AEC01892B09F08FCF35
:102AB000DF91CF911F910F91FF90EF90DF90CF901A
:102AC000BF90AF909F9008950895AA1BBB1B51E142
:102AD00007C0AA1FBB1FA617B70710F0A61BB70B8E
:102AE000881F991F5A95A9F780959095BC01CD0133
:102AF0000895A29FB001B39FC001A39F700D811DD7
:102B00001124911DB29F700D811D1124911D0895F6
:102B10008F929F92AF92BF92CF92DF92EF92FF92ED
:102B2000CF93DF93EC01688179818A819B81611564
:102B300071058105910521F464E279ED8BE597E05B
:102B40002DE133EF41E050E041D049015A019B01B2
:102B5000AC01A7EAB1E456D06B017C01ACEEB4EF56
:102B6000A50194015BD0DC01CB018C0D9D1DAE1D38
:102B7000BF1DB7FF03C00197A109B048888399839F
:102B8000AA83BB839F77DF91CF91FF90EF90DF9077
:102B9000CF90BF90AF909F908F900895B9CF80E075
:102BA00092E0B6CFA0E0B0E08093000290930102E3
:102BB000A0930202B09303020895FB01DC0102C05E
:102BC00001900D9241505040D8F70895052E97FB83
:102BD00016F400940FD057FD05D024D007FC02D086
:102BE00046F408C050954095309521953F4F4F4F82
:102BF0005F4F089590958095709561957F4F8F4FA9
:102C00009F4F089576DFA59F900DB49F900DA49FD0
:102C1000800D911D11240895B7FFF4CFF3DF821BBF
:102C2000930B0895A1E21A2EAA1BBB1BFD010DC038
:102C3000AA1FBB1FEE1FFF1FA217B307E407F5076C
:102C400020F0A21BB30BE40BF50B661F771F881F48
:102C5000991F1A9469F760957095809590959B01DE
:0C2C6000AC01BD01CF010895F894FFCF36
:062C6C000100000002005F
:00000001FF
